{
  "contractName": "Auction",
  "abi": [
    {
      "constant": true,
      "inputs": [],
      "name": "beneficiary",
      "outputs": [
        {
          "name": "",
          "type": "address"
        }
      ],
      "payable": false,
      "stateMutability": "view",
      "type": "function"
    },
    {
      "constant": true,
      "inputs": [],
      "name": "itemName",
      "outputs": [
        {
          "name": "",
          "type": "string"
        }
      ],
      "payable": false,
      "stateMutability": "view",
      "type": "function"
    },
    {
      "constant": true,
      "inputs": [],
      "name": "auctionEndTime",
      "outputs": [
        {
          "name": "",
          "type": "uint256"
        }
      ],
      "payable": false,
      "stateMutability": "view",
      "type": "function"
    },
    {
      "constant": true,
      "inputs": [],
      "name": "beneficiaryRedeemed",
      "outputs": [
        {
          "name": "",
          "type": "bool"
        }
      ],
      "payable": false,
      "stateMutability": "view",
      "type": "function"
    },
    {
      "constant": true,
      "inputs": [],
      "name": "highestBidder",
      "outputs": [
        {
          "name": "",
          "type": "address"
        }
      ],
      "payable": false,
      "stateMutability": "view",
      "type": "function"
    },
    {
      "constant": true,
      "inputs": [],
      "name": "itemDescription",
      "outputs": [
        {
          "name": "",
          "type": "string"
        }
      ],
      "payable": false,
      "stateMutability": "view",
      "type": "function"
    },
    {
      "constant": true,
      "inputs": [],
      "name": "ipfsImage",
      "outputs": [
        {
          "name": "",
          "type": "string"
        }
      ],
      "payable": false,
      "stateMutability": "view",
      "type": "function"
    },
    {
      "constant": true,
      "inputs": [],
      "name": "highestBid",
      "outputs": [
        {
          "name": "",
          "type": "uint256"
        }
      ],
      "payable": false,
      "stateMutability": "view",
      "type": "function"
    },
    {
      "constant": true,
      "inputs": [],
      "name": "cancel",
      "outputs": [
        {
          "name": "",
          "type": "bool"
        }
      ],
      "payable": false,
      "stateMutability": "view",
      "type": "function"
    },
    {
      "constant": true,
      "inputs": [],
      "name": "auctionStartTime",
      "outputs": [
        {
          "name": "",
          "type": "uint256"
        }
      ],
      "payable": false,
      "stateMutability": "view",
      "type": "function"
    },
    {
      "inputs": [
        {
          "name": "_beneficiary",
          "type": "address"
        },
        {
          "name": "_name",
          "type": "string"
        },
        {
          "name": "_description",
          "type": "string"
        },
        {
          "name": "_ipfsHash",
          "type": "string"
        },
        {
          "name": "_auctionLength",
          "type": "uint256"
        }
      ],
      "payable": false,
      "stateMutability": "nonpayable",
      "type": "constructor"
    },
    {
      "anonymous": false,
      "inputs": [
        {
          "indexed": false,
          "name": "highestBid",
          "type": "uint256"
        }
      ],
      "name": "LogBid",
      "type": "event"
    },
    {
      "anonymous": false,
      "inputs": [
        {
          "indexed": false,
          "name": "reason",
          "type": "string"
        }
      ],
      "name": "LogAuctionCancelled",
      "type": "event"
    },
    {
      "anonymous": false,
      "inputs": [
        {
          "indexed": false,
          "name": "bidder",
          "type": "address"
        },
        {
          "indexed": false,
          "name": "funds",
          "type": "uint256"
        }
      ],
      "name": "LogRedemption",
      "type": "event"
    },
    {
      "constant": false,
      "inputs": [],
      "name": "cancelAuction",
      "outputs": [],
      "payable": false,
      "stateMutability": "nonpayable",
      "type": "function"
    },
    {
      "constant": false,
      "inputs": [
        {
          "name": "_bid",
          "type": "uint256"
        }
      ],
      "name": "placeBid",
      "outputs": [],
      "payable": true,
      "stateMutability": "payable",
      "type": "function"
    },
    {
      "constant": false,
      "inputs": [],
      "name": "redeem",
      "outputs": [],
      "payable": false,
      "stateMutability": "nonpayable",
      "type": "function"
    },
    {
      "constant": false,
      "inputs": [],
      "name": "refund",
      "outputs": [],
      "payable": false,
      "stateMutability": "nonpayable",
      "type": "function"
    }
  ],
  "bytecode": "0x608060405234801561001057600080fd5b5060405162000f1338038062000f138339810180604052810190808051906020019092919080518201929190602001805182019291906020018051820192919060200180519060200190929190505050846000806101000a81548173ffffffffffffffffffffffffffffffffffffffff021916908373ffffffffffffffffffffffffffffffffffffffff16021790555083600190805190602001906100b6929190610137565b5081600390805190602001906100cd929190610137565b5082600290805190602001906100e4929190610137565b504260048190555080600454016005819055506000600760146101000a81548160ff0219169083151502179055506000600760156101000a81548160ff02191690831515021790555050505050506101dc565b828054600181600116156101000203166002900490600052602060002090601f016020900481019282601f1061017857805160ff19168380011785556101a6565b828001600101855582156101a6579182015b828111156101a557825182559160200191906001019061018a565b5b5090506101b391906101b7565b5090565b6101d991905b808211156101d55760008160009055506001016101bd565b5090565b90565b610d2780620001ec6000396000f3006080604052600436106100d0576000357c0100000000000000000000000000000000000000000000000000000000900463ffffffff16806338af3eed146100d557806340401fea1461012c5780634b449cba146101bc578063590e1ae3146101e7578063632adaf2146101fe5780638fa8b7901461022d57806391f90157146102445780639979ef451461029b5780639f365226146102bb578063be040fb01461034b578063c51fd2e614610362578063d57bde79146103f2578063ea8a1af01461041d578063eb54f9ec1461044c575b600080fd5b3480156100e157600080fd5b506100ea610477565b604051808273ffffffffffffffffffffffffffffffffffffffff1673ffffffffffffffffffffffffffffffffffffffff16815260200191505060405180910390f35b34801561013857600080fd5b5061014161049c565b6040518080602001828103825283818151815260200191508051906020019080838360005b83811015610181578082015181840152602081019050610166565b50505050905090810190601f1680156101ae5780820380516001836020036101000a031916815260200191505b509250505060405180910390f35b3480156101c857600080fd5b506101d161053a565b6040518082815260200191505060405180910390f35b3480156101f357600080fd5b506101fc610540565b005b34801561020a57600080fd5b50610213610701565b604051808215151515815260200191505060405180910390f35b34801561023957600080fd5b50610242610714565b005b34801561025057600080fd5b506102596107a8565b604051808273ffffffffffffffffffffffffffffffffffffffff1673ffffffffffffffffffffffffffffffffffffffff16815260200191505060405180910390f35b6102b9600480360381019080803590602001909291905050506107ce565b005b3480156102c757600080fd5b506102d0610a46565b6040518080602001828103825283818151815260200191508051906020019080838360005b838110156103105780820151818401526020810190506102f5565b50505050905090810190601f16801561033d5780820380516001836020036101000a031916815260200191505b509250505060405180910390f35b34801561035757600080fd5b50610360610ae4565b005b34801561036e57600080fd5b50610377610c3e565b6040518080602001828103825283818151815260200191508051906020019080838360005b838110156103b757808201518184015260208101905061039c565b50505050905090810190601f1680156103e45780820380516001836020036101000a031916815260200191505b509250505060405180910390f35b3480156103fe57600080fd5b50610407610cdc565b6040518082815260200191505060405180910390f35b34801561042957600080fd5b50610432610ce2565b604051808215151515815260200191505060405180910390f35b34801561045857600080fd5b50610461610cf5565b6040518082815260200191505060405180910390f35b6000809054906101000a900473ffffffffffffffffffffffffffffffffffffffff1681565b60018054600181600116156101000203166002900480601f0160208091040260200160405190810160405280929190818152602001828054600181600116156101000203166002900480156105325780601f1061050757610100808354040283529160200191610532565b820191906000526020600020905b81548152906001019060200180831161051557829003601f168201915b505050505081565b60055481565b6000600760149054906101000a900460ff168061055e575060055442115b151561056957600080fd5b6000809054906101000a900473ffffffffffffffffffffffffffffffffffffffff1673ffffffffffffffffffffffffffffffffffffffff163373ffffffffffffffffffffffffffffffffffffffff16141515156105c557600080fd5b600860003373ffffffffffffffffffffffffffffffffffffffff1673ffffffffffffffffffffffffffffffffffffffff1681526020019081526020016000205490506000600860003373ffffffffffffffffffffffffffffffffffffffff1673ffffffffffffffffffffffffffffffffffffffff168152602001908152602001600020819055503373ffffffffffffffffffffffffffffffffffffffff166108fc829081150290604051600060405180830381858888f19350505050158015610692573d6000803e3d6000fd5b507f2de3ebe1bb56079998f2617612ba527a2690a100757600dfc0d7253c808b74293382604051808373ffffffffffffffffffffffffffffffffffffffff1673ffffffffffffffffffffffffffffffffffffffff1681526020018281526020019250505060405180910390a150565b600760159054906101000a900460ff1681565b6000809054906101000a900473ffffffffffffffffffffffffffffffffffffffff1673ffffffffffffffffffffffffffffffffffffffff163373ffffffffffffffffffffffffffffffffffffffff1614151561076f57600080fd5b600760149054906101000a900460ff1615151561078b57600080fd5b6001600760146101000a81548160ff021916908315150217905550565b600760009054906101000a900473ffffffffffffffffffffffffffffffffffffffff1681565b6000806000600760149054906101000a900460ff161515156107ef57600080fd5b600454421115156107ff57600080fd5b6005544210151561080f57600080fd5b6000809054906101000a900473ffffffffffffffffffffffffffffffffffffffff1673ffffffffffffffffffffffffffffffffffffffff163373ffffffffffffffffffffffffffffffffffffffff161415151561086b57600080fd5b60003411151561087a57600080fd5b83600080600860003373ffffffffffffffffffffffffffffffffffffffff1673ffffffffffffffffffffffffffffffffffffffff168152602001908152602001600020549150818303905080341115156108d357600080fd5b86600654811115156108e457600080fd5b600860003373ffffffffffffffffffffffffffffffffffffffff1673ffffffffffffffffffffffffffffffffffffffff1681526020019081526020016000205496508688039550853403945087600860003373ffffffffffffffffffffffffffffffffffffffff1673ffffffffffffffffffffffffffffffffffffffff168152602001908152602001600020819055508760068190555033600760006101000a81548173ffffffffffffffffffffffffffffffffffffffff021916908373ffffffffffffffffffffffffffffffffffffffff1602179055507f7d9efd020b743621a79f27b88a52eb7f345ae4b3258a0d360aad9a9c971d229e6006546040518082815260200191505060405180910390a13373ffffffffffffffffffffffffffffffffffffffff166108fc869081150290604051600060405180830381858888f19350505050158015610a3b573d6000803e3d6000fd5b505050505050505050565b60028054600181600116156101000203166002900480601f016020809104026020016040519081016040528092919081815260200182805460018160011615610100020316600290048015610adc5780601f10610ab157610100808354040283529160200191610adc565b820191906000526020600020905b815481529060010190602001808311610abf57829003601f168201915b505050505081565b60055442111515610af457600080fd5b6000809054906101000a900473ffffffffffffffffffffffffffffffffffffffff1673ffffffffffffffffffffffffffffffffffffffff163373ffffffffffffffffffffffffffffffffffffffff16141515610b4f57600080fd5b600760159054906101000a900460ff16151515610b6b57600080fd5b6001600760156101000a81548160ff0219169083151502179055503373ffffffffffffffffffffffffffffffffffffffff166108fc6006549081150290604051600060405180830381858888f19350505050158015610bce573d6000803e3d6000fd5b507f2de3ebe1bb56079998f2617612ba527a2690a100757600dfc0d7253c808b742933600654604051808373ffffffffffffffffffffffffffffffffffffffff1673ffffffffffffffffffffffffffffffffffffffff1681526020018281526020019250505060405180910390a1565b60038054600181600116156101000203166002900480601f016020809104026020016040519081016040528092919081815260200182805460018160011615610100020316600290048015610cd45780601f10610ca957610100808354040283529160200191610cd4565b820191906000526020600020905b815481529060010190602001808311610cb757829003601f168201915b505050505081565b60065481565b600760149054906101000a900460ff1681565b600454815600a165627a7a723058203e85fa32b41d197a4aabd5969d356a3a0e8e6724d493c7df081f81065964b59e0029",
  "source": "pragma solidity 0.4.24;\n\n\ncontract Auction {\n    address public beneficiary;\n    string public itemName;\n    string public itemDescription;\n    string public ipfsImage;\n\n    uint256 public auctionStartTime;\n    uint256 public auctionEndTime;\n\n    uint256 public highestBid;\n    address public highestBidder;\n\n    bool public cancel;\n    bool public beneficiaryRedeemed;\n    mapping (address => uint256) private currentBids;\n\n    // events\n    event LogBid(uint256 highestBid);\n    event LogAuctionCancelled(string reason);\n    event LogRedemption(address bidder, uint256 funds);\n\n    modifier onlyBeneficiary() {\n        require(msg.sender == beneficiary);\n        _;\n    }\n\n    modifier onlyNotBeneficiary() {\n        require(msg.sender != beneficiary);\n        _;\n    }\n\n    modifier onlyAfterStart() {\n        require(now > auctionStartTime);\n        _;\n    }\n\n    modifier onlyBeforeEnd() {\n        require(now < auctionEndTime);\n        _;\n    }\n\n    modifier onlyNotCancelled() {\n        require(!cancel);\n        _;\n    }\n\n    modifier onlyNotRedeemed() {\n        require(!beneficiaryRedeemed);\n        _;\n    }\n\n    modifier onlyAuctionClosed() {\n        require(now > auctionEndTime);\n        _;\n    }\n\n    modifier onlyAuctionClosedOrCancelled() {\n        require(cancel || now > auctionEndTime);\n        _;\n    }\n\n    modifier onlyNonZeroFunds() {\n        require(msg.value > 0);\n        _;\n    }\n\n    modifier onlyHasEnoughFunds(uint256 _bid) {\n        uint256 previousBid = currentBids[msg.sender];\n        uint256 fundsNeeded = _bid - previousBid;\n        require(msg.value > fundsNeeded);\n        _;\n    }\n\n    modifier onlyRaisesBid(uint256 _bid) {\n        require(_bid > highestBid);\n        _;\n    }\n\n    constructor(\n        address _beneficiary,\n        string _name,\n        string _description,\n        string _ipfsHash,\n        uint256 _auctionLength\n    ) public {\n        beneficiary = _beneficiary;\n        itemName = _name;\n        ipfsImage = _ipfsHash;\n        itemDescription = _description;\n        auctionStartTime = now;\n        auctionEndTime = auctionStartTime + _auctionLength;\n        cancel = false;\n        beneficiaryRedeemed = false;\n    }\n\n    function cancelAuction()\n    public onlyBeneficiary onlyNotCancelled\n    {\n        cancel = true;\n    }\n\n    function placeBid(uint256 _bid)\n    public payable\n    onlyNotCancelled onlyAfterStart onlyBeforeEnd onlyNotBeneficiary\n    onlyNonZeroFunds onlyHasEnoughFunds(_bid) onlyRaisesBid(_bid)\n    {\n        uint256 previousBid = currentBids[msg.sender];\n        uint256 increment = _bid - previousBid;\n        uint256 refund = msg.value - increment;\n\n        currentBids[msg.sender] = _bid;\n        highestBid = _bid;\n        highestBidder = msg.sender;\n        emit LogBid(highestBid);\n\n        msg.sender.transfer(refund);\n    }\n\n    function redeem()\n    public onlyAuctionClosed onlyBeneficiary onlyNotRedeemed\n    {\n        beneficiaryRedeemed = true;\n        msg.sender.transfer(highestBid);\n        emit LogRedemption(msg.sender, highestBid);\n    }\n\n    function refund()\n    public onlyAuctionClosedOrCancelled onlyNotBeneficiary\n    {\n        uint256 funds = currentBids[msg.sender];\n        currentBids[msg.sender] = 0;\n\n        msg.sender.transfer(funds);\n        emit LogRedemption(msg.sender, funds);\n    }\n}\n\n",
  "sourcePath": "/Volumes/Sofai/dev/consensys/final/amal/contracts/Auction.sol",
  "compiler": {
    "name": "solc",
    "version": "0.4.24+commit.e67f0147.Emscripten.clang"
  },
  "schemaVersion": "2.0.1",
  "updatedAt": "2018-08-27T02:55:48.780Z"
}