{
  "contractName": "Auction",
  "abi": [
    {
      "constant": true,
      "inputs": [],
      "name": "beneficiary",
      "outputs": [
        {
          "name": "",
          "type": "address"
        }
      ],
      "payable": false,
      "stateMutability": "view",
      "type": "function"
    },
    {
      "constant": true,
      "inputs": [],
      "name": "itemName",
      "outputs": [
        {
          "name": "",
          "type": "string"
        }
      ],
      "payable": false,
      "stateMutability": "view",
      "type": "function"
    },
    {
      "constant": true,
      "inputs": [],
      "name": "auctionEndTime",
      "outputs": [
        {
          "name": "",
          "type": "uint256"
        }
      ],
      "payable": false,
      "stateMutability": "view",
      "type": "function"
    },
    {
      "constant": true,
      "inputs": [],
      "name": "highestBidder",
      "outputs": [
        {
          "name": "",
          "type": "address"
        }
      ],
      "payable": false,
      "stateMutability": "view",
      "type": "function"
    },
    {
      "constant": true,
      "inputs": [],
      "name": "itemDescription",
      "outputs": [
        {
          "name": "",
          "type": "string"
        }
      ],
      "payable": false,
      "stateMutability": "view",
      "type": "function"
    },
    {
      "constant": true,
      "inputs": [],
      "name": "ipfsImage",
      "outputs": [
        {
          "name": "",
          "type": "string"
        }
      ],
      "payable": false,
      "stateMutability": "view",
      "type": "function"
    },
    {
      "constant": true,
      "inputs": [],
      "name": "highestBid",
      "outputs": [
        {
          "name": "",
          "type": "uint256"
        }
      ],
      "payable": false,
      "stateMutability": "view",
      "type": "function"
    },
    {
      "constant": true,
      "inputs": [],
      "name": "cancel",
      "outputs": [
        {
          "name": "",
          "type": "bool"
        }
      ],
      "payable": false,
      "stateMutability": "view",
      "type": "function"
    },
    {
      "constant": true,
      "inputs": [],
      "name": "auctionStartTime",
      "outputs": [
        {
          "name": "",
          "type": "uint256"
        }
      ],
      "payable": false,
      "stateMutability": "view",
      "type": "function"
    },
    {
      "inputs": [
        {
          "name": "_beneficiary",
          "type": "address"
        },
        {
          "name": "_name",
          "type": "string"
        },
        {
          "name": "_description",
          "type": "string"
        },
        {
          "name": "_ipfsHash",
          "type": "string"
        },
        {
          "name": "_auctionLength",
          "type": "uint256"
        }
      ],
      "payable": false,
      "stateMutability": "nonpayable",
      "type": "constructor"
    },
    {
      "anonymous": false,
      "inputs": [
        {
          "indexed": false,
          "name": "highestBid",
          "type": "uint256"
        }
      ],
      "name": "LogBid",
      "type": "event"
    },
    {
      "anonymous": false,
      "inputs": [
        {
          "indexed": false,
          "name": "reason",
          "type": "string"
        }
      ],
      "name": "LogAuctionCancelled",
      "type": "event"
    },
    {
      "anonymous": false,
      "inputs": [
        {
          "indexed": false,
          "name": "bidder",
          "type": "address"
        },
        {
          "indexed": false,
          "name": "funds",
          "type": "uint256"
        }
      ],
      "name": "LogRedemption",
      "type": "event"
    },
    {
      "constant": false,
      "inputs": [
        {
          "name": "_reason",
          "type": "string"
        }
      ],
      "name": "cancelAuction",
      "outputs": [],
      "payable": false,
      "stateMutability": "nonpayable",
      "type": "function"
    },
    {
      "constant": false,
      "inputs": [
        {
          "name": "_bid",
          "type": "uint256"
        }
      ],
      "name": "placeBid",
      "outputs": [],
      "payable": true,
      "stateMutability": "payable",
      "type": "function"
    },
    {
      "constant": false,
      "inputs": [],
      "name": "redeem",
      "outputs": [],
      "payable": false,
      "stateMutability": "nonpayable",
      "type": "function"
    }
  ],
  "bytecode": "0x608060405234801561001057600080fd5b5060405162000edf38038062000edf8339810180604052810190808051906020019092919080518201929190602001805182019291906020018051820192919060200180519060200190929190505050846000806101000a81548173ffffffffffffffffffffffffffffffffffffffff021916908373ffffffffffffffffffffffffffffffffffffffff16021790555083600190805190602001906100b692919061011c565b5081600390805190602001906100cd92919061011c565b5082600290805190602001906100e492919061011c565b504260048190555080600454016005819055506000600760146101000a81548160ff02191690831515021790555050505050506101c1565b828054600181600116156101000203166002900490600052602060002090601f016020900481019282601f1061015d57805160ff191683800117855561018b565b8280016001018555821561018b579182015b8281111561018a57825182559160200191906001019061016f565b5b509050610198919061019c565b5090565b6101be91905b808211156101ba5760008160009055506001016101a2565b5090565b90565b610d0e80620001d16000396000f3006080604052600436106100ba576000357c0100000000000000000000000000000000000000000000000000000000900463ffffffff16806338af3eed146100bf57806340401fea146101165780634b449cba146101a657806391f90157146101d15780639979ef45146102285780639f36522614610248578063b60e7a3b146102d8578063be040fb014610341578063c51fd2e614610358578063d57bde79146103e8578063ea8a1af014610413578063eb54f9ec14610442575b600080fd5b3480156100cb57600080fd5b506100d461046d565b604051808273ffffffffffffffffffffffffffffffffffffffff1673ffffffffffffffffffffffffffffffffffffffff16815260200191505060405180910390f35b34801561012257600080fd5b5061012b610492565b6040518080602001828103825283818151815260200191508051906020019080838360005b8381101561016b578082015181840152602081019050610150565b50505050905090810190601f1680156101985780820380516001836020036101000a031916815260200191505b509250505060405180910390f35b3480156101b257600080fd5b506101bb610530565b6040518082815260200191505060405180910390f35b3480156101dd57600080fd5b506101e6610536565b604051808273ffffffffffffffffffffffffffffffffffffffff1673ffffffffffffffffffffffffffffffffffffffff16815260200191505060405180910390f35b6102466004803603810190808035906020019092919050505061055c565b005b34801561025457600080fd5b5061025d6107d4565b6040518080602001828103825283818151815260200191508051906020019080838360005b8381101561029d578082015181840152602081019050610282565b50505050905090810190601f1680156102ca5780820380516001836020036101000a031916815260200191505b509250505060405180910390f35b3480156102e457600080fd5b5061033f600480360381019080803590602001908201803590602001908080601f0160208091040260200160405190810160405280939291908181526020018383808284378201915050505050509192919290505050610872565b005b34801561034d57600080fd5b506103566109a3565b005b34801561036457600080fd5b5061036d610c25565b6040518080602001828103825283818151815260200191508051906020019080838360005b838110156103ad578082015181840152602081019050610392565b50505050905090810190601f1680156103da5780820380516001836020036101000a031916815260200191505b509250505060405180910390f35b3480156103f457600080fd5b506103fd610cc3565b6040518082815260200191505060405180910390f35b34801561041f57600080fd5b50610428610cc9565b604051808215151515815260200191505060405180910390f35b34801561044e57600080fd5b50610457610cdc565b6040518082815260200191505060405180910390f35b6000809054906101000a900473ffffffffffffffffffffffffffffffffffffffff1681565b60018054600181600116156101000203166002900480601f0160208091040260200160405190810160405280929190818152602001828054600181600116156101000203166002900480156105285780601f106104fd57610100808354040283529160200191610528565b820191906000526020600020905b81548152906001019060200180831161050b57829003601f168201915b505050505081565b60055481565b600760009054906101000a900473ffffffffffffffffffffffffffffffffffffffff1681565b6000806000600760149054906101000a900460ff1615151561057d57600080fd5b6004544211151561058d57600080fd5b6005544210151561059d57600080fd5b6000809054906101000a900473ffffffffffffffffffffffffffffffffffffffff1673ffffffffffffffffffffffffffffffffffffffff163373ffffffffffffffffffffffffffffffffffffffff16141515156105f957600080fd5b60003411151561060857600080fd5b83600080600860003373ffffffffffffffffffffffffffffffffffffffff1673ffffffffffffffffffffffffffffffffffffffff1681526020019081526020016000205491508183039050803411151561066157600080fd5b866006548111151561067257600080fd5b600860003373ffffffffffffffffffffffffffffffffffffffff1673ffffffffffffffffffffffffffffffffffffffff1681526020019081526020016000205496508688039550853403945087600860003373ffffffffffffffffffffffffffffffffffffffff1673ffffffffffffffffffffffffffffffffffffffff168152602001908152602001600020819055508760068190555033600760006101000a81548173ffffffffffffffffffffffffffffffffffffffff021916908373ffffffffffffffffffffffffffffffffffffffff1602179055507f7d9efd020b743621a79f27b88a52eb7f345ae4b3258a0d360aad9a9c971d229e6006546040518082815260200191505060405180910390a13373ffffffffffffffffffffffffffffffffffffffff166108fc869081150290604051600060405180830381858888f193505050501580156107c9573d6000803e3d6000fd5b505050505050505050565b60028054600181600116156101000203166002900480601f01602080910402602001604051908101604052809291908181526020018280546001816001161561010002031660029004801561086a5780601f1061083f5761010080835404028352916020019161086a565b820191906000526020600020905b81548152906001019060200180831161084d57829003601f168201915b505050505081565b6000809054906101000a900473ffffffffffffffffffffffffffffffffffffffff1673ffffffffffffffffffffffffffffffffffffffff163373ffffffffffffffffffffffffffffffffffffffff161415156108cd57600080fd5b600760149054906101000a900460ff161515156108e957600080fd5b6001600760146101000a81548160ff0219169083151502179055507fad219bcc1c30e8d918aa55f0566f9564becdbcd64d0de9797c6a9fa7a228086b816040518080602001828103825283818151815260200191508051906020019080838360005b8381101561096657808201518184015260208101905061094b565b50505050905090810190601f1680156109935780820380516001836020036101000a031916815260200191505b509250505060405180910390a150565b6000600760149054906101000a900460ff16806109c1575060055442115b15156109cc57600080fd5b600760149054906101000a900460ff1615610a6d57600860003373ffffffffffffffffffffffffffffffffffffffff1673ffffffffffffffffffffffffffffffffffffffff1681526020019081526020016000205490506000600860003373ffffffffffffffffffffffffffffffffffffffff1673ffffffffffffffffffffffffffffffffffffffff16815260200190815260200160002081905550610b70565b6000809054906101000a900473ffffffffffffffffffffffffffffffffffffffff1673ffffffffffffffffffffffffffffffffffffffff163373ffffffffffffffffffffffffffffffffffffffff161415610acc576006549050610b6f565b600760009054906101000a900473ffffffffffffffffffffffffffffffffffffffff1673ffffffffffffffffffffffffffffffffffffffff163373ffffffffffffffffffffffffffffffffffffffff161415610b2b5760009050610b6e565b600860003373ffffffffffffffffffffffffffffffffffffffff1673ffffffffffffffffffffffffffffffffffffffff1681526020019081526020016000205490505b5b5b3373ffffffffffffffffffffffffffffffffffffffff166108fc829081150290604051600060405180830381858888f19350505050158015610bb6573d6000803e3d6000fd5b507f2de3ebe1bb56079998f2617612ba527a2690a100757600dfc0d7253c808b74293382604051808373ffffffffffffffffffffffffffffffffffffffff1673ffffffffffffffffffffffffffffffffffffffff1681526020018281526020019250505060405180910390a150565b60038054600181600116156101000203166002900480601f016020809104026020016040519081016040528092919081815260200182805460018160011615610100020316600290048015610cbb5780601f10610c9057610100808354040283529160200191610cbb565b820191906000526020600020905b815481529060010190602001808311610c9e57829003601f168201915b505050505081565b60065481565b600760149054906101000a900460ff1681565b600454815600a165627a7a723058207e6e9db5cdbe57642f2a7373f21e1be4b7db1ad0210190978d43e1cca1d780a10029",
  "source": "pragma solidity 0.4.24;\n\n\ncontract Auction {\n    address public beneficiary;\n    string public itemName;\n    string public itemDescription;\n    string public ipfsImage;\n\n    uint256 public auctionStartTime;\n    uint256 public auctionEndTime;\n\n    uint256 public highestBid;\n    address public highestBidder;\n    bool public cancel;\n    mapping (address => uint256) private currentBids;\n\n    // events\n    event LogBid(uint256 highestBid);\n    event LogAuctionCancelled(string reason);\n    event LogRedemption(address bidder, uint256 funds);\n\n    modifier onlyBeneficiary() {\n        require(msg.sender == beneficiary);\n        _;\n    }\n\n    modifier onlyNotBeneficiary() {\n        require(msg.sender != beneficiary);\n        _;\n    }\n\n    modifier onlyAfterStart() {\n        require(now > auctionStartTime);\n        _;\n    }\n\n    modifier onlyBeforeEnd() {\n        require(now < auctionEndTime);\n        _;\n    }\n\n    modifier onlyNotCancelled() {\n        require(!cancel);\n        _;\n    }\n\n    modifier onlyAuctionClosed() {\n        require(cancel || now > auctionEndTime);\n        _;\n    }\n\n    modifier onlyNonZeroFunds() {\n        require(msg.value > 0);\n        _;\n    }\n\n    modifier onlyHasEnoughFunds(uint256 _bid) {\n        uint256 previousBid = currentBids[msg.sender];\n        uint256 fundsNeeded = _bid - previousBid;\n        require(msg.value > fundsNeeded);\n        _;\n    }\n\n    modifier onlyRaisesBid(uint256 _bid) {\n        require(_bid > highestBid);\n        _;\n    }\n\n    constructor(\n        address _beneficiary,\n        string _name,\n        string _description,\n        string _ipfsHash,\n        uint256 _auctionLength\n    ) public {\n        beneficiary = _beneficiary;\n        itemName = _name;\n        ipfsImage = _ipfsHash;\n        itemDescription = _description;\n        auctionStartTime = now;\n        auctionEndTime = auctionStartTime + _auctionLength;\n        cancel = false;\n    }\n\n    function cancelAuction(string _reason)\n    public onlyBeneficiary onlyNotCancelled\n    {\n        cancel = true;\n        emit LogAuctionCancelled(_reason);\n    }\n\n    function placeBid(uint256 _bid)\n    public payable\n    onlyNotCancelled onlyAfterStart onlyBeforeEnd onlyNotBeneficiary\n    onlyNonZeroFunds onlyHasEnoughFunds(_bid) onlyRaisesBid(_bid)\n    {\n        uint256 previousBid = currentBids[msg.sender];\n        uint256 increment = _bid - previousBid;\n        uint256 refund = msg.value - increment;\n\n        currentBids[msg.sender] = _bid;\n        highestBid = _bid;\n        highestBidder = msg.sender;\n        emit LogBid(highestBid);\n\n        msg.sender.transfer(refund);\n    }\n\n    function redeem()\n    public onlyAuctionClosed\n    {\n        uint256 funds;\n        if (cancel) {\n            funds = currentBids[msg.sender];\n            currentBids[msg.sender] = 0;\n        } else {\n            if (msg.sender == beneficiary) {\n                funds = highestBid;\n            } else if (msg.sender == highestBidder) {\n                funds = 0;\n            } else {\n                funds = currentBids[msg.sender];\n            }\n        }\n        msg.sender.transfer(funds);\n        emit LogRedemption(msg.sender, funds);\n    }\n}\n",
  "sourcePath": "/Volumes/Sofai/dev/consensys/final/amal/contracts/Auction.sol",
  "compiler": {
    "name": "solc",
    "version": "0.4.24+commit.e67f0147.Emscripten.clang"
  },
  "schemaVersion": "2.0.1",
  "updatedAt": "2018-08-26T02:44:20.773Z"
}