{
  "contractName": "AuctionFactory",
  "abi": [
    {
      "constant": true,
      "inputs": [
        {
          "name": "",
          "type": "uint256"
        }
      ],
      "name": "allAuctions",
      "outputs": [
        {
          "name": "",
          "type": "address"
        }
      ],
      "payable": false,
      "stateMutability": "view",
      "type": "function"
    },
    {
      "constant": false,
      "inputs": [],
      "name": "unpause",
      "outputs": [],
      "payable": false,
      "stateMutability": "nonpayable",
      "type": "function"
    },
    {
      "constant": true,
      "inputs": [],
      "name": "paused",
      "outputs": [
        {
          "name": "",
          "type": "bool"
        }
      ],
      "payable": false,
      "stateMutability": "view",
      "type": "function"
    },
    {
      "constant": false,
      "inputs": [],
      "name": "pause",
      "outputs": [],
      "payable": false,
      "stateMutability": "nonpayable",
      "type": "function"
    },
    {
      "constant": true,
      "inputs": [],
      "name": "owner",
      "outputs": [
        {
          "name": "",
          "type": "address"
        }
      ],
      "payable": false,
      "stateMutability": "view",
      "type": "function"
    },
    {
      "constant": false,
      "inputs": [
        {
          "name": "newOwner",
          "type": "address"
        }
      ],
      "name": "transferOwnership",
      "outputs": [],
      "payable": false,
      "stateMutability": "nonpayable",
      "type": "function"
    },
    {
      "anonymous": false,
      "inputs": [
        {
          "indexed": false,
          "name": "auction",
          "type": "address"
        },
        {
          "indexed": false,
          "name": "beneficiary",
          "type": "address"
        },
        {
          "indexed": false,
          "name": "numAuctions",
          "type": "uint256"
        },
        {
          "indexed": false,
          "name": "auctions",
          "type": "address[]"
        }
      ],
      "name": "LogAuctionCreated",
      "type": "event"
    },
    {
      "anonymous": false,
      "inputs": [],
      "name": "Pause",
      "type": "event"
    },
    {
      "anonymous": false,
      "inputs": [],
      "name": "Unpause",
      "type": "event"
    },
    {
      "anonymous": false,
      "inputs": [
        {
          "indexed": true,
          "name": "previousOwner",
          "type": "address"
        },
        {
          "indexed": true,
          "name": "newOwner",
          "type": "address"
        }
      ],
      "name": "OwnershipTransferred",
      "type": "event"
    },
    {
      "constant": false,
      "inputs": [
        {
          "name": "beneficiary",
          "type": "address"
        },
        {
          "name": "itemName",
          "type": "string"
        },
        {
          "name": "itemDescription",
          "type": "string"
        },
        {
          "name": "ipfsHash",
          "type": "string"
        },
        {
          "name": "auctionLength",
          "type": "uint256"
        }
      ],
      "name": "createAuction",
      "outputs": [],
      "payable": false,
      "stateMutability": "nonpayable",
      "type": "function"
    },
    {
      "constant": true,
      "inputs": [],
      "name": "getAllAuctions",
      "outputs": [
        {
          "name": "",
          "type": "address[]"
        }
      ],
      "payable": false,
      "stateMutability": "view",
      "type": "function"
    }
  ],
  "bytecode": "0x608060405260008060146101000a81548160ff021916908315150217905550336000806101000a81548173ffffffffffffffffffffffffffffffffffffffff021916908373ffffffffffffffffffffffffffffffffffffffff160217905550611a038061006d6000396000f30060806040526004361061008e576000357c0100000000000000000000000000000000000000000000000000000000900463ffffffff168063165c5881146100935780633f4ba83a146101005780635455583f146101175780635c975abb146102365780638456cb59146102655780638da5cb5b1461027c578063cbd2bdfd146102d3578063f2fde38b1461033f575b600080fd5b34801561009f57600080fd5b506100be60048036038101908080359060200190929190505050610382565b604051808273ffffffffffffffffffffffffffffffffffffffff1673ffffffffffffffffffffffffffffffffffffffff16815260200191505060405180910390f35b34801561010c57600080fd5b506101156103c0565b005b34801561012357600080fd5b50610234600480360381019080803573ffffffffffffffffffffffffffffffffffffffff169060200190929190803590602001908201803590602001908080601f0160208091040260200160405190810160405280939291908181526020018383808284378201915050505050509192919290803590602001908201803590602001908080601f0160208091040260200160405190810160405280939291908181526020018383808284378201915050505050509192919290803590602001908201803590602001908080601f01602080910402602001604051908101604052809392919081815260200183838082843782019150505050505091929192908035906020019092919050505061047e565b005b34801561024257600080fd5b5061024b6107d7565b604051808215151515815260200191505060405180910390f35b34801561027157600080fd5b5061027a6107ea565b005b34801561028857600080fd5b506102916108aa565b604051808273ffffffffffffffffffffffffffffffffffffffff1673ffffffffffffffffffffffffffffffffffffffff16815260200191505060405180910390f35b3480156102df57600080fd5b506102e86108cf565b6040518080602001828103825283818151815260200191508051906020019060200280838360005b8381101561032b578082015181840152602081019050610310565b505050509050019250505060405180910390f35b34801561034b57600080fd5b50610380600480360381019080803573ffffffffffffffffffffffffffffffffffffffff16906020019092919050505061095d565b005b60018181548110151561039157fe5b906000526020600020016000915054906101000a900473ffffffffffffffffffffffffffffffffffffffff1681565b6000809054906101000a900473ffffffffffffffffffffffffffffffffffffffff1673ffffffffffffffffffffffffffffffffffffffff163373ffffffffffffffffffffffffffffffffffffffff1614151561041b57600080fd5b600060149054906101000a900460ff16151561043657600080fd5b60008060146101000a81548160ff0219169083151502179055507f7805862f689e2f13df9f062ff482ad3ad112aca9e0847911ed832e158c525b3360405160405180910390a1565b60008060149054906101000a900460ff1615151561049b57600080fd5b85858585856104a8610ab2565b808673ffffffffffffffffffffffffffffffffffffffff1673ffffffffffffffffffffffffffffffffffffffff168152602001806020018060200180602001858152602001848103845288818151815260200191508051906020019080838360005b8381101561052557808201518184015260208101905061050a565b50505050905090810190601f1680156105525780820380516001836020036101000a031916815260200191505b50848103835287818151815260200191508051906020019080838360005b8381101561058b578082015181840152602081019050610570565b50505050905090810190601f1680156105b85780820380516001836020036101000a031916815260200191505b50848103825286818151815260200191508051906020019080838360005b838110156105f15780820151818401526020810190506105d6565b50505050905090810190601f16801561061e5780820380516001836020036101000a031916815260200191505b5098505050505050505050604051809103906000f080158015610645573d6000803e3d6000fd5b50905060018190806001815401808255809150509060018203906000526020600020016000909192909190916101000a81548173ffffffffffffffffffffffffffffffffffffffff021916908373ffffffffffffffffffffffffffffffffffffffff160217905550507f8e63e26cf2db78df1b013dfb9ae5f7c0de594ab2fd40dd578f596dd3f65f41f281876001805490506001604051808573ffffffffffffffffffffffffffffffffffffffff1673ffffffffffffffffffffffffffffffffffffffff1681526020018473ffffffffffffffffffffffffffffffffffffffff1673ffffffffffffffffffffffffffffffffffffffff1681526020018381526020018060200182810382528381815481526020019150805480156107be57602002820191906000526020600020905b8160009054906101000a900473ffffffffffffffffffffffffffffffffffffffff1673ffffffffffffffffffffffffffffffffffffffff1681526020019060010190808311610774575b50509550505050505060405180910390a1505050505050565b600060149054906101000a900460ff1681565b6000809054906101000a900473ffffffffffffffffffffffffffffffffffffffff1673ffffffffffffffffffffffffffffffffffffffff163373ffffffffffffffffffffffffffffffffffffffff1614151561084557600080fd5b600060149054906101000a900460ff1615151561086157600080fd5b6001600060146101000a81548160ff0219169083151502179055507f6985a02210a168e66602d3235cb6db0e70f92b3ba4d376a33c0f3d9434bff62560405160405180910390a1565b6000809054906101000a900473ffffffffffffffffffffffffffffffffffffffff1681565b6060600180548060200260200160405190810160405280929190818152602001828054801561095357602002820191906000526020600020905b8160009054906101000a900473ffffffffffffffffffffffffffffffffffffffff1673ffffffffffffffffffffffffffffffffffffffff1681526020019060010190808311610909575b5050505050905090565b6000809054906101000a900473ffffffffffffffffffffffffffffffffffffffff1673ffffffffffffffffffffffffffffffffffffffff163373ffffffffffffffffffffffffffffffffffffffff161415156109b857600080fd5b600073ffffffffffffffffffffffffffffffffffffffff168173ffffffffffffffffffffffffffffffffffffffff16141515156109f457600080fd5b8073ffffffffffffffffffffffffffffffffffffffff166000809054906101000a900473ffffffffffffffffffffffffffffffffffffffff1673ffffffffffffffffffffffffffffffffffffffff167f8be0079c531659141344cd1fd0a4f28419497f9722a3daafe3b4186f6b6457e060405160405180910390a3806000806101000a81548173ffffffffffffffffffffffffffffffffffffffff021916908373ffffffffffffffffffffffffffffffffffffffff16021790555050565b604051610f1580610ac3833901905600608060405234801561001057600080fd5b5060405162000f1538038062000f158339810180604052810190808051906020019092919080518201929190602001805182019291906020018051820192919060200180519060200190929190505050846000806101000a81548173ffffffffffffffffffffffffffffffffffffffff021916908373ffffffffffffffffffffffffffffffffffffffff16021790555083600190805190602001906100b6929190610137565b5081600390805190602001906100cd929190610137565b5082600290805190602001906100e4929190610137565b504260048190555080600454016005819055506000600760146101000a81548160ff0219169083151502179055506000600760156101000a81548160ff02191690831515021790555050505050506101dc565b828054600181600116156101000203166002900490600052602060002090601f016020900481019282601f1061017857805160ff19168380011785556101a6565b828001600101855582156101a6579182015b828111156101a557825182559160200191906001019061018a565b5b5090506101b391906101b7565b5090565b6101d991905b808211156101d55760008160009055506001016101bd565b5090565b90565b610d2980620001ec6000396000f3006080604052600436106100d0576000357c0100000000000000000000000000000000000000000000000000000000900463ffffffff16806338af3eed146100d557806340401fea1461012c5780634b449cba146101bc578063590e1ae3146101e7578063632adaf2146101fe5780638fa8b7901461022d57806391f90157146102445780639979ef451461029b5780639f365226146102bb578063be040fb01461034b578063c51fd2e614610362578063d57bde79146103f2578063ea8a1af01461041d578063eb54f9ec1461044c575b600080fd5b3480156100e157600080fd5b506100ea610477565b604051808273ffffffffffffffffffffffffffffffffffffffff1673ffffffffffffffffffffffffffffffffffffffff16815260200191505060405180910390f35b34801561013857600080fd5b5061014161049c565b6040518080602001828103825283818151815260200191508051906020019080838360005b83811015610181578082015181840152602081019050610166565b50505050905090810190601f1680156101ae5780820380516001836020036101000a031916815260200191505b509250505060405180910390f35b3480156101c857600080fd5b506101d161053a565b6040518082815260200191505060405180910390f35b3480156101f357600080fd5b506101fc610540565b005b34801561020a57600080fd5b50610213610701565b604051808215151515815260200191505060405180910390f35b34801561023957600080fd5b50610242610714565b005b34801561025057600080fd5b506102596107a8565b604051808273ffffffffffffffffffffffffffffffffffffffff1673ffffffffffffffffffffffffffffffffffffffff16815260200191505060405180910390f35b6102b9600480360381019080803590602001909291905050506107ce565b005b3480156102c757600080fd5b506102d0610a48565b6040518080602001828103825283818151815260200191508051906020019080838360005b838110156103105780820151818401526020810190506102f5565b50505050905090810190601f16801561033d5780820380516001836020036101000a031916815260200191505b509250505060405180910390f35b34801561035757600080fd5b50610360610ae6565b005b34801561036e57600080fd5b50610377610c40565b6040518080602001828103825283818151815260200191508051906020019080838360005b838110156103b757808201518184015260208101905061039c565b50505050905090810190601f1680156103e45780820380516001836020036101000a031916815260200191505b509250505060405180910390f35b3480156103fe57600080fd5b50610407610cde565b6040518082815260200191505060405180910390f35b34801561042957600080fd5b50610432610ce4565b604051808215151515815260200191505060405180910390f35b34801561045857600080fd5b50610461610cf7565b6040518082815260200191505060405180910390f35b6000809054906101000a900473ffffffffffffffffffffffffffffffffffffffff1681565b60018054600181600116156101000203166002900480601f0160208091040260200160405190810160405280929190818152602001828054600181600116156101000203166002900480156105325780601f1061050757610100808354040283529160200191610532565b820191906000526020600020905b81548152906001019060200180831161051557829003601f168201915b505050505081565b60055481565b6000600760149054906101000a900460ff168061055e575060055442115b151561056957600080fd5b6000809054906101000a900473ffffffffffffffffffffffffffffffffffffffff1673ffffffffffffffffffffffffffffffffffffffff163373ffffffffffffffffffffffffffffffffffffffff16141515156105c557600080fd5b600860003373ffffffffffffffffffffffffffffffffffffffff1673ffffffffffffffffffffffffffffffffffffffff1681526020019081526020016000205490506000600860003373ffffffffffffffffffffffffffffffffffffffff1673ffffffffffffffffffffffffffffffffffffffff168152602001908152602001600020819055503373ffffffffffffffffffffffffffffffffffffffff166108fc829081150290604051600060405180830381858888f19350505050158015610692573d6000803e3d6000fd5b507f2de3ebe1bb56079998f2617612ba527a2690a100757600dfc0d7253c808b74293382604051808373ffffffffffffffffffffffffffffffffffffffff1673ffffffffffffffffffffffffffffffffffffffff1681526020018281526020019250505060405180910390a150565b600760159054906101000a900460ff1681565b6000809054906101000a900473ffffffffffffffffffffffffffffffffffffffff1673ffffffffffffffffffffffffffffffffffffffff163373ffffffffffffffffffffffffffffffffffffffff1614151561076f57600080fd5b600760149054906101000a900460ff1615151561078b57600080fd5b6001600760146101000a81548160ff021916908315150217905550565b600760009054906101000a900473ffffffffffffffffffffffffffffffffffffffff1681565b6000806000600760149054906101000a900460ff161515156107ef57600080fd5b600454421015151561080057600080fd5b6005544210151561081057600080fd5b6000809054906101000a900473ffffffffffffffffffffffffffffffffffffffff1673ffffffffffffffffffffffffffffffffffffffff163373ffffffffffffffffffffffffffffffffffffffff161415151561086c57600080fd5b60003411151561087b57600080fd5b83600080600860003373ffffffffffffffffffffffffffffffffffffffff1673ffffffffffffffffffffffffffffffffffffffff16815260200190815260200160002054915081830390508034101515156108d557600080fd5b86600654811115156108e657600080fd5b600860003373ffffffffffffffffffffffffffffffffffffffff1673ffffffffffffffffffffffffffffffffffffffff1681526020019081526020016000205496508688039550853403945087600860003373ffffffffffffffffffffffffffffffffffffffff1673ffffffffffffffffffffffffffffffffffffffff168152602001908152602001600020819055508760068190555033600760006101000a81548173ffffffffffffffffffffffffffffffffffffffff021916908373ffffffffffffffffffffffffffffffffffffffff1602179055507f7d9efd020b743621a79f27b88a52eb7f345ae4b3258a0d360aad9a9c971d229e6006546040518082815260200191505060405180910390a13373ffffffffffffffffffffffffffffffffffffffff166108fc869081150290604051600060405180830381858888f19350505050158015610a3d573d6000803e3d6000fd5b505050505050505050565b60028054600181600116156101000203166002900480601f016020809104026020016040519081016040528092919081815260200182805460018160011615610100020316600290048015610ade5780601f10610ab357610100808354040283529160200191610ade565b820191906000526020600020905b815481529060010190602001808311610ac157829003601f168201915b505050505081565b60055442111515610af657600080fd5b6000809054906101000a900473ffffffffffffffffffffffffffffffffffffffff1673ffffffffffffffffffffffffffffffffffffffff163373ffffffffffffffffffffffffffffffffffffffff16141515610b5157600080fd5b600760159054906101000a900460ff16151515610b6d57600080fd5b6001600760156101000a81548160ff0219169083151502179055503373ffffffffffffffffffffffffffffffffffffffff166108fc6006549081150290604051600060405180830381858888f19350505050158015610bd0573d6000803e3d6000fd5b507f2de3ebe1bb56079998f2617612ba527a2690a100757600dfc0d7253c808b742933600654604051808373ffffffffffffffffffffffffffffffffffffffff1673ffffffffffffffffffffffffffffffffffffffff1681526020018281526020019250505060405180910390a1565b60038054600181600116156101000203166002900480601f016020809104026020016040519081016040528092919081815260200182805460018160011615610100020316600290048015610cd65780601f10610cab57610100808354040283529160200191610cd6565b820191906000526020600020905b815481529060010190602001808311610cb957829003601f168201915b505050505081565b60065481565b600760149054906101000a900460ff1681565b600454815600a165627a7a72305820329c90c378d9f1b79d3d3b037679b5c49cf2eacdc9bbeaadd1c72fc4ae6fd2930029a165627a7a7230582001f42a7e28e113f6dd710f6c176652245512ced5b7fcd2edbd573471d262463e0029",
  "source": "pragma solidity 0.4.24;\nimport { Auction } from \"./Auction.sol\";\nimport { Pausable } from \"../installed_contracts/zeppelin/contracts/lifecycle/Pausable.sol\";\n\n/// @title Auction factory.\n///\n/// Allows anyone actor to create an auction.\n\ncontract AuctionFactory is Pausable {\n\n    /// array of all auctions created\n    address[] public allAuctions;\n\n    /// @dev log when an auction is created.\n    /// @param auction Address of created auction.\n    /// @param beneficiary The address of the beneficiary, or owner of this auction.\n    /// @param numAuctions The number of auctions.\n    /// @param auctions All auctions in the system\n\n    event LogAuctionCreated(address auction, address beneficiary, uint256 numAuctions, address[] auctions);\n\n    /// @dev factory method to create a new Auction contract.\n    /// @param beneficiary The entity to be rewarded from the auction.\n    /// @param itemName The name of the item.\n    /// @param itemDescription Description of the item.\n    /// @param ipfsHash IPFS image hash of auctioned item's picture.\n    /// @param auctionLength The auction's duration specifid in seconds.\n    function createAuction\n    (\n        address beneficiary,\n        string itemName,\n        string itemDescription,\n        string ipfsHash,\n        uint256 auctionLength\n    )\n    public\n    whenNotPaused\n    {\n        Auction theAuction = new Auction(beneficiary, itemName, itemDescription, ipfsHash, auctionLength);\n        allAuctions.push(theAuction);\n\n        emit LogAuctionCreated(theAuction, beneficiary, allAuctions.length, allAuctions);\n    }\n\n    /// @dev query for all auctions\n    /// @return array of auctions\n    function getAllAuctions()\n    public constant returns(address[])\n    {\n        return allAuctions;\n    }\n}\n\n",
  "sourcePath": "/Volumes/Sofai/dev/consensys/final/amal/contracts/AuctionFactory.sol",
  "compiler": {
    "name": "solc",
    "version": "0.4.24+commit.e67f0147.Emscripten.clang"
  },
  "schemaVersion": "2.0.1",
  "updatedAt": "2018-08-27T19:10:54.285Z"
}