{
  "contractName": "AuctionFactory",
  "abi": [
    {
      "constant": true,
      "inputs": [
        {
          "name": "",
          "type": "uint256"
        }
      ],
      "name": "allAuctions",
      "outputs": [
        {
          "name": "",
          "type": "address"
        }
      ],
      "payable": false,
      "stateMutability": "view",
      "type": "function"
    },
    {
      "anonymous": false,
      "inputs": [
        {
          "indexed": false,
          "name": "auction",
          "type": "address"
        },
        {
          "indexed": false,
          "name": "beneficiary",
          "type": "address"
        },
        {
          "indexed": false,
          "name": "numAuctions",
          "type": "uint256"
        },
        {
          "indexed": false,
          "name": "auctions",
          "type": "address[]"
        }
      ],
      "name": "LogAuctionCreated",
      "type": "event"
    },
    {
      "constant": false,
      "inputs": [
        {
          "name": "beneficiary",
          "type": "address"
        },
        {
          "name": "itemName",
          "type": "string"
        },
        {
          "name": "itemDescription",
          "type": "string"
        },
        {
          "name": "ipfsHash",
          "type": "string"
        },
        {
          "name": "auctionLength",
          "type": "uint256"
        }
      ],
      "name": "createAuction",
      "outputs": [],
      "payable": false,
      "stateMutability": "nonpayable",
      "type": "function"
    }
  ],
  "bytecode": "0x608060405234801561001057600080fd5b50611474806100206000396000f30060806040526004361061004c576000357c0100000000000000000000000000000000000000000000000000000000900463ffffffff168063165c5881146100515780635455583f146100be575b600080fd5b34801561005d57600080fd5b5061007c600480360381019080803590602001909291905050506101dd565b604051808273ffffffffffffffffffffffffffffffffffffffff1673ffffffffffffffffffffffffffffffffffffffff16815260200191505060405180910390f35b3480156100ca57600080fd5b506101db600480360381019080803573ffffffffffffffffffffffffffffffffffffffff169060200190929190803590602001908201803590602001908080601f0160208091040260200160405190810160405280939291908181526020018383808284378201915050505050509192919290803590602001908201803590602001908080601f0160208091040260200160405190810160405280939291908181526020018383808284378201915050505050509192919290803590602001908201803590602001908080601f01602080910402602001604051908101604052809392919081815260200183838082843782019150505050505091929192908035906020019092919050505061021b565b005b6000818154811015156101ec57fe5b906000526020600020016000915054906101000a900473ffffffffffffffffffffffffffffffffffffffff1681565b6000858585858561022a610559565b808673ffffffffffffffffffffffffffffffffffffffff1673ffffffffffffffffffffffffffffffffffffffff168152602001806020018060200180602001858152602001848103845288818151815260200191508051906020019080838360005b838110156102a757808201518184015260208101905061028c565b50505050905090810190601f1680156102d45780820380516001836020036101000a031916815260200191505b50848103835287818151815260200191508051906020019080838360005b8381101561030d5780820151818401526020810190506102f2565b50505050905090810190601f16801561033a5780820380516001836020036101000a031916815260200191505b50848103825286818151815260200191508051906020019080838360005b83811015610373578082015181840152602081019050610358565b50505050905090810190601f1680156103a05780820380516001836020036101000a031916815260200191505b5098505050505050505050604051809103906000f0801580156103c7573d6000803e3d6000fd5b50905060008190806001815401808255809150509060018203906000526020600020016000909192909190916101000a81548173ffffffffffffffffffffffffffffffffffffffff021916908373ffffffffffffffffffffffffffffffffffffffff160217905550507f8e63e26cf2db78df1b013dfb9ae5f7c0de594ab2fd40dd578f596dd3f65f41f281876000805490506000604051808573ffffffffffffffffffffffffffffffffffffffff1673ffffffffffffffffffffffffffffffffffffffff1681526020018473ffffffffffffffffffffffffffffffffffffffff1673ffffffffffffffffffffffffffffffffffffffff16815260200183815260200180602001828103825283818154815260200191508054801561054057602002820191906000526020600020905b8160009054906101000a900473ffffffffffffffffffffffffffffffffffffffff1673ffffffffffffffffffffffffffffffffffffffff16815260200190600101908083116104f6575b50509550505050505060405180910390a1505050505050565b604051610edf8061056a833901905600608060405234801561001057600080fd5b5060405162000edf38038062000edf8339810180604052810190808051906020019092919080518201929190602001805182019291906020018051820192919060200180519060200190929190505050846000806101000a81548173ffffffffffffffffffffffffffffffffffffffff021916908373ffffffffffffffffffffffffffffffffffffffff16021790555083600190805190602001906100b692919061011c565b5081600390805190602001906100cd92919061011c565b5082600290805190602001906100e492919061011c565b504260048190555080600454016005819055506000600760146101000a81548160ff02191690831515021790555050505050506101c1565b828054600181600116156101000203166002900490600052602060002090601f016020900481019282601f1061015d57805160ff191683800117855561018b565b8280016001018555821561018b579182015b8281111561018a57825182559160200191906001019061016f565b5b509050610198919061019c565b5090565b6101be91905b808211156101ba5760008160009055506001016101a2565b5090565b90565b610d0e80620001d16000396000f3006080604052600436106100ba576000357c0100000000000000000000000000000000000000000000000000000000900463ffffffff16806338af3eed146100bf57806340401fea146101165780634b449cba146101a657806391f90157146101d15780639979ef45146102285780639f36522614610248578063b60e7a3b146102d8578063be040fb014610341578063c51fd2e614610358578063d57bde79146103e8578063ea8a1af014610413578063eb54f9ec14610442575b600080fd5b3480156100cb57600080fd5b506100d461046d565b604051808273ffffffffffffffffffffffffffffffffffffffff1673ffffffffffffffffffffffffffffffffffffffff16815260200191505060405180910390f35b34801561012257600080fd5b5061012b610492565b6040518080602001828103825283818151815260200191508051906020019080838360005b8381101561016b578082015181840152602081019050610150565b50505050905090810190601f1680156101985780820380516001836020036101000a031916815260200191505b509250505060405180910390f35b3480156101b257600080fd5b506101bb610530565b6040518082815260200191505060405180910390f35b3480156101dd57600080fd5b506101e6610536565b604051808273ffffffffffffffffffffffffffffffffffffffff1673ffffffffffffffffffffffffffffffffffffffff16815260200191505060405180910390f35b6102466004803603810190808035906020019092919050505061055c565b005b34801561025457600080fd5b5061025d6107d4565b6040518080602001828103825283818151815260200191508051906020019080838360005b8381101561029d578082015181840152602081019050610282565b50505050905090810190601f1680156102ca5780820380516001836020036101000a031916815260200191505b509250505060405180910390f35b3480156102e457600080fd5b5061033f600480360381019080803590602001908201803590602001908080601f0160208091040260200160405190810160405280939291908181526020018383808284378201915050505050509192919290505050610872565b005b34801561034d57600080fd5b506103566109a3565b005b34801561036457600080fd5b5061036d610c25565b6040518080602001828103825283818151815260200191508051906020019080838360005b838110156103ad578082015181840152602081019050610392565b50505050905090810190601f1680156103da5780820380516001836020036101000a031916815260200191505b509250505060405180910390f35b3480156103f457600080fd5b506103fd610cc3565b6040518082815260200191505060405180910390f35b34801561041f57600080fd5b50610428610cc9565b604051808215151515815260200191505060405180910390f35b34801561044e57600080fd5b50610457610cdc565b6040518082815260200191505060405180910390f35b6000809054906101000a900473ffffffffffffffffffffffffffffffffffffffff1681565b60018054600181600116156101000203166002900480601f0160208091040260200160405190810160405280929190818152602001828054600181600116156101000203166002900480156105285780601f106104fd57610100808354040283529160200191610528565b820191906000526020600020905b81548152906001019060200180831161050b57829003601f168201915b505050505081565b60055481565b600760009054906101000a900473ffffffffffffffffffffffffffffffffffffffff1681565b6000806000600760149054906101000a900460ff1615151561057d57600080fd5b6004544211151561058d57600080fd5b6005544210151561059d57600080fd5b6000809054906101000a900473ffffffffffffffffffffffffffffffffffffffff1673ffffffffffffffffffffffffffffffffffffffff163373ffffffffffffffffffffffffffffffffffffffff16141515156105f957600080fd5b60003411151561060857600080fd5b83600080600860003373ffffffffffffffffffffffffffffffffffffffff1673ffffffffffffffffffffffffffffffffffffffff1681526020019081526020016000205491508183039050803411151561066157600080fd5b866006548111151561067257600080fd5b600860003373ffffffffffffffffffffffffffffffffffffffff1673ffffffffffffffffffffffffffffffffffffffff1681526020019081526020016000205496508688039550853403945087600860003373ffffffffffffffffffffffffffffffffffffffff1673ffffffffffffffffffffffffffffffffffffffff168152602001908152602001600020819055508760068190555033600760006101000a81548173ffffffffffffffffffffffffffffffffffffffff021916908373ffffffffffffffffffffffffffffffffffffffff1602179055507f7d9efd020b743621a79f27b88a52eb7f345ae4b3258a0d360aad9a9c971d229e6006546040518082815260200191505060405180910390a13373ffffffffffffffffffffffffffffffffffffffff166108fc869081150290604051600060405180830381858888f193505050501580156107c9573d6000803e3d6000fd5b505050505050505050565b60028054600181600116156101000203166002900480601f01602080910402602001604051908101604052809291908181526020018280546001816001161561010002031660029004801561086a5780601f1061083f5761010080835404028352916020019161086a565b820191906000526020600020905b81548152906001019060200180831161084d57829003601f168201915b505050505081565b6000809054906101000a900473ffffffffffffffffffffffffffffffffffffffff1673ffffffffffffffffffffffffffffffffffffffff163373ffffffffffffffffffffffffffffffffffffffff161415156108cd57600080fd5b600760149054906101000a900460ff161515156108e957600080fd5b6001600760146101000a81548160ff0219169083151502179055507fad219bcc1c30e8d918aa55f0566f9564becdbcd64d0de9797c6a9fa7a228086b816040518080602001828103825283818151815260200191508051906020019080838360005b8381101561096657808201518184015260208101905061094b565b50505050905090810190601f1680156109935780820380516001836020036101000a031916815260200191505b509250505060405180910390a150565b6000600760149054906101000a900460ff16806109c1575060055442115b15156109cc57600080fd5b600760149054906101000a900460ff1615610a6d57600860003373ffffffffffffffffffffffffffffffffffffffff1673ffffffffffffffffffffffffffffffffffffffff1681526020019081526020016000205490506000600860003373ffffffffffffffffffffffffffffffffffffffff1673ffffffffffffffffffffffffffffffffffffffff16815260200190815260200160002081905550610b70565b6000809054906101000a900473ffffffffffffffffffffffffffffffffffffffff1673ffffffffffffffffffffffffffffffffffffffff163373ffffffffffffffffffffffffffffffffffffffff161415610acc576006549050610b6f565b600760009054906101000a900473ffffffffffffffffffffffffffffffffffffffff1673ffffffffffffffffffffffffffffffffffffffff163373ffffffffffffffffffffffffffffffffffffffff161415610b2b5760009050610b6e565b600860003373ffffffffffffffffffffffffffffffffffffffff1673ffffffffffffffffffffffffffffffffffffffff1681526020019081526020016000205490505b5b5b3373ffffffffffffffffffffffffffffffffffffffff166108fc829081150290604051600060405180830381858888f19350505050158015610bb6573d6000803e3d6000fd5b507f2de3ebe1bb56079998f2617612ba527a2690a100757600dfc0d7253c808b74293382604051808373ffffffffffffffffffffffffffffffffffffffff1673ffffffffffffffffffffffffffffffffffffffff1681526020018281526020019250505060405180910390a150565b60038054600181600116156101000203166002900480601f016020809104026020016040519081016040528092919081815260200182805460018160011615610100020316600290048015610cbb5780601f10610c9057610100808354040283529160200191610cbb565b820191906000526020600020905b815481529060010190602001808311610c9e57829003601f168201915b505050505081565b60065481565b600760149054906101000a900460ff1681565b600454815600a165627a7a72305820a7728f03de45bf7f877ecf12d05c3604795cefdce7563353fda179a3570cd2ec0029a165627a7a723058204c6951290958be28951724473ce3c05143cdf48bce737fc6976c96cf12de17a30029",
  "source": "pragma solidity ^0.4.24;\n\nimport { Auction } from \"./Auction.sol\";\n\ncontract AuctionFactory {\n\n    address[] public allAuctions;\n\n    event LogAuctionCreated(address auction, address beneficiary, uint256 numAuctions, address[] auctions);\n\n    function createAuction(address beneficiary, string itemName, string itemDescription, string ipfsHash, uint256 auctionLength)\n\tpublic\n\t{\n        Auction theAuction = new Auction(beneficiary, itemName, itemDescription, ipfsHash, auctionLength);\n        allAuctions.push(theAuction);\n\n        emit LogAuctionCreated(theAuction, beneficiary, allAuctions.length, allAuctions);\n    }\n}\n\n",
  "sourcePath": "/Volumes/Sofai/dev/consensys/final/amal/contracts/AuctionFactory.sol",
  "compiler": {
    "name": "solc",
    "version": "0.4.24+commit.e67f0147.Emscripten.clang"
  },
  "schemaVersion": "2.0.1",
  "updatedAt": "2018-08-25T03:25:16.352Z"
}