{
  "contractName": "SimpleStorage",
  "abi": [
    {
      "anonymous": false,
      "inputs": [
        {
          "indexed": false,
          "name": "data",
          "type": "uint256"
        }
      ],
      "name": "DataStored",
      "type": "event"
    },
    {
      "anonymous": false,
      "inputs": [
        {
          "indexed": false,
          "name": "data",
          "type": "uint256"
        }
      ],
      "name": "DataStoredDoubled",
      "type": "event"
    },
    {
      "anonymous": false,
      "inputs": [
        {
          "indexed": false,
          "name": "value",
          "type": "uint256"
        }
      ],
      "name": "EtherStored",
      "type": "event"
    },
    {
      "anonymous": false,
      "inputs": [
        {
          "indexed": false,
          "name": "hash",
          "type": "string"
        }
      ],
      "name": "IPFSHashSet",
      "type": "event"
    },
    {
      "constant": false,
      "inputs": [
        {
          "name": "_ipfsHash",
          "type": "string"
        }
      ],
      "name": "setIPFSHash",
      "outputs": [],
      "payable": false,
      "stateMutability": "nonpayable",
      "type": "function"
    },
    {
      "constant": true,
      "inputs": [],
      "name": "getIPFSHash",
      "outputs": [
        {
          "name": "",
          "type": "string"
        }
      ],
      "payable": false,
      "stateMutability": "view",
      "type": "function"
    },
    {
      "constant": false,
      "inputs": [
        {
          "name": "x",
          "type": "uint256"
        }
      ],
      "name": "set",
      "outputs": [],
      "payable": true,
      "stateMutability": "payable",
      "type": "function"
    },
    {
      "constant": true,
      "inputs": [],
      "name": "get",
      "outputs": [
        {
          "name": "",
          "type": "uint256"
        }
      ],
      "payable": false,
      "stateMutability": "view",
      "type": "function"
    },
    {
      "constant": true,
      "inputs": [],
      "name": "getDoubled",
      "outputs": [
        {
          "name": "",
          "type": "uint256"
        }
      ],
      "payable": false,
      "stateMutability": "view",
      "type": "function"
    }
  ],
  "bytecode": "0x608060405234801561001057600080fd5b506104e4806100206000396000f30060806040526004361061006d576000357c0100000000000000000000000000000000000000000000000000000000900463ffffffff168063168c3a9f1461007257806320b28ade1461009d57806360fe47b11461012d5780636d4ce63c1461014d578063b8a76f5414610178575b600080fd5b34801561007e57600080fd5b506100876101e1565b6040518082815260200191505060405180910390f35b3480156100a957600080fd5b506100b26101eb565b6040518080602001828103825283818151815260200191508051906020019080838360005b838110156100f25780820151818401526020810190506100d7565b50505050905090810190601f16801561011f5780820380516001836020036101000a031916815260200191505b509250505060405180910390f35b61014b6004803603810190808035906020019092919050505061028d565b005b34801561015957600080fd5b50610162610354565b6040518082815260200191505060405180910390f35b34801561018457600080fd5b506101df600480360381019080803590602001908201803590602001908080601f016020809104026020016040519081016040528093929190818152602001838380828437820191505050505050919291929050505061035d565b005b6000600154905090565b606060028054600181600116156101000203166002900480601f0160208091040260200160405190810160405280929190818152602001828054600181600116156101000203166002900480156102835780601f1061025857610100808354040283529160200191610283565b820191906000526020600020905b81548152906001019060200180831161026657829003601f168201915b5050505050905090565b80600081905550600281026001819055507f9455957c3b77d1d4ed071e2b469dd77e37fc5dfd3b4d44dc8a997cc97c7b3d496000546040518082815260200191505060405180910390a17f4dc3dac70628b90cc904ab69a1158b8783eaab1e86ba79448ca58622a284abf66001546040518082815260200191505060405180910390a16000341115610351577f493f200b2f9fa0625b5adabdbc807549fbb1861351ac0a415872c6ce014c2481346040518082815260200191505060405180910390a15b50565b60008054905090565b8060029080519060200190610373929190610413565b507fcdd3a3665efbcc8b9eb03d94ca33f84d70956eeb48a7506f3fb0cff8f41065cd816040518080602001828103825283818151815260200191508051906020019080838360005b838110156103d65780820151818401526020810190506103bb565b50505050905090810190601f1680156104035780820380516001836020036101000a031916815260200191505b509250505060405180910390a150565b828054600181600116156101000203166002900490600052602060002090601f016020900481019282601f1061045457805160ff1916838001178555610482565b82800160010185558215610482579182015b82811115610481578251825591602001919060010190610466565b5b50905061048f9190610493565b5090565b6104b591905b808211156104b1576000816000905550600101610499565b5090565b905600a165627a7a72305820cfced6e5f276f7ac67848993a2114625206664ef659b9927bf1188333a7610920029",
  "source": "pragma solidity 0.4.24;\nimport \"zeppelin/contracts/math/SafeMath.sol\";\n\n\ncontract SimpleStorage {\n    using SafeMath for uint256;\n\n    uint256 private storedData;\n    uint256 private twiceStoredData;\n    string private ipfsHash;\n\n\n    event DataStored(uint256 data);\n    event DataStoredDoubled(uint256 data);\n    event EtherStored(uint256 value);\n    event IPFSHashSet(string hash);\n\n    function setIPFSHash(string _ipfsHash) public {\n        ipfsHash = _ipfsHash;\n        emit IPFSHashSet(_ipfsHash);\n    }\n\n    function getIPFSHash() public view returns (string) {\n        return ipfsHash;\n    }\n\n    // make function payable\n    function set(uint256 x) public payable {\n        storedData = x;\n        twiceStoredData = x * 2;\n\n        emit DataStored(storedData);\n        emit DataStoredDoubled(twiceStoredData);\n\n        // only if the caller sends ether should an event be emitted\n        if (msg.value > 0) {\n            emit EtherStored(msg.value);\n        }\n    }\n\n    function get() public view returns (uint256) {\n        return storedData;\n    }\n\n    function getDoubled() public view returns (uint256) {\n        return twiceStoredData;\n    }\n}\n",
  "sourcePath": "/Volumes/Sofai/dev/consensys/cra-truffle/contracts/SimpleStorage.sol",
  "compiler": {
    "name": "solc",
    "version": "0.4.24+commit.e67f0147.Emscripten.clang"
  },
  "schemaVersion": "2.0.1",
  "updatedAt": "2018-08-24T15:06:09.039Z"
}